{
  "_format": "hh-sol-artifact-1",
  "contractName": "Certificate",
  "sourceName": "contracts/Certificate.sol",
  "abi": [
    {
      "inputs": [],
      "stateMutability": "nonpayable",
      "type": "constructor"
    },
    {
      "anonymous": false,
      "inputs": [
        {
          "indexed": false,
          "internalType": "bytes32",
          "name": "certificateHash",
          "type": "bytes32"
        }
      ],
      "name": "CertificateIssued",
      "type": "event"
    },
    {
      "inputs": [],
      "name": "admin",
      "outputs": [
        {
          "internalType": "address",
          "name": "",
          "type": "address"
        }
      ],
      "stateMutability": "view",
      "type": "function"
    },
    {
      "inputs": [
        {
          "internalType": "bytes32",
          "name": "_certificateHash",
          "type": "bytes32"
        }
      ],
      "name": "issueCertificate",
      "outputs": [],
      "stateMutability": "nonpayable",
      "type": "function"
    },
    {
      "inputs": [
        {
          "internalType": "bytes32",
          "name": "_certificateHash",
          "type": "bytes32"
        }
      ],
      "name": "verifyCertificate",
      "outputs": [
        {
          "internalType": "bool",
          "name": "",
          "type": "bool"
        }
      ],
      "stateMutability": "view",
      "type": "function"
    }
  ],
  "bytecode": "0x608060405234801561001057600080fd5b50336000806101000a81548173ffffffffffffffffffffffffffffffffffffffff021916908373ffffffffffffffffffffffffffffffffffffffff1602179055506103ee806100606000396000f3fe608060405234801561001057600080fd5b50600436106100415760003560e01c8063850c176814610046578063a1f8182414610076578063f851a44014610092575b600080fd5b610060600480360381019061005b919061022c565b6100b0565b60405161006d9190610274565b60405180910390f35b610090600480360381019061008b919061022c565b6100da565b005b61009a6101cd565b6040516100a791906102d0565b60405180910390f35b60006001600083815260200190815260200160002060009054906101000a900460ff169050919050565b60008054906101000a900473ffffffffffffffffffffffffffffffffffffffff1673ffffffffffffffffffffffffffffffffffffffff163373ffffffffffffffffffffffffffffffffffffffff1614610168576040517f08c379a000000000000000000000000000000000000000000000000000000000815260040161015f9061036e565b60405180910390fd5b600180600083815260200190815260200160002060006101000a81548160ff0219169083151502179055507f615fe29dd761acef07dabe50d28b02874372a0a63ee7fa4221480b34b7ac14ba816040516101c2919061039d565b60405180910390a150565b60008054906101000a900473ffffffffffffffffffffffffffffffffffffffff1681565b600080fd5b6000819050919050565b610209816101f6565b811461021457600080fd5b50565b60008135905061022681610200565b92915050565b600060208284031215610242576102416101f1565b5b600061025084828501610217565b91505092915050565b60008115159050919050565b61026e81610259565b82525050565b60006020820190506102896000830184610265565b92915050565b600073ffffffffffffffffffffffffffffffffffffffff82169050919050565b60006102ba8261028f565b9050919050565b6102ca816102af565b82525050565b60006020820190506102e560008301846102c1565b92915050565b600082825260208201905092915050565b7f4f6e6c792061646d696e2063616e20697373756520636572746966696361746560008201527f7300000000000000000000000000000000000000000000000000000000000000602082015250565b60006103586021836102eb565b9150610363826102fc565b604082019050919050565b600060208201905081810360008301526103878161034b565b9050919050565b610397816101f6565b82525050565b60006020820190506103b2600083018461038e565b9291505056fea2646970667358221220969ac500071b59dbf8b4c1422f5829e4057db9f854264badbc378e21330d381b64736f6c63430008140033",
  "linkReferences": {},
  "deployedLinkReferences": {}
}